:100000000C944D000C946C000C946C000C946C00DF
:100010000C946C000C946C000C946C000C946C00B0
:100020000C946C000C946C000C946C000C946C00A0
:100030000C946C000C94E5000C946C000C946C0017
:100040000C946C000C946C000C946C000C946C0080
:100050000C946C000C946C000C946C000C946C0070
:100060000C946C000C946C000C946C000C946C0060
:100070000C946C000C946C000C946C000C946C0050
:100080000C946C000C946C000C946C008F01960125
:10009000C301F00138026502AE0211241FBECFEF8A
:1000A000D0E4DEBFCDBF11E0A0E0B1E0E4ECF6E0CB
:1000B00000E00BBF02C007900D92A231B107D9F743
:1000C00021E0A2E1B1E001C01D92AC31B207E1F73D
:1000D0000E941C030C9460030C940000CF93DF93E8
:1000E00000D01F92CDB7DEB789837B836A83898175
:1000F0008A3031F48A819B81BC018DE00E946E00C0
:1001000080EC90E0FC018081882F90E0807299273C
:10011000892BB1F386EC90E02981FC01208380E0FB
:1001200090E00F900F900F90DF91CF910895CF93B3
:10013000DF93CDB7DEB781E890E02BE0FC012083B0
:1001400088E890E02DE730E0FC01318320838FE6E2
:1001500090E022E0FC01208384E890E0FC01118221
:10016000108280910E0190910F01A0911001B09129
:1001700011018093130190931401A0931501B09382
:1001800016018FE590E02FE530E0F901208120682D
:10019000FC0120830000DF91CF910895CF93DF937E
:1001A000CDB7DEB781E890E0FC0110820000DF915E
:1001B000CF910895CF93DF93CDB7DEB781E08093E1
:1001C00012010000DF91CF9108951F920F920090CD
:1001D0005F000F92112400905B000F922F933F93CA
:1001E0004F935F936F937F938F939F93AF93BF933F
:1001F000EF93FF93CF93DF93CDB7DEB780911301D9
:1002000090911401A0911501B09116010197A109D7
:10021000B1098093130190931401A0931501B09339
:1002200016018091130190911401A0911501B091D4
:100230001601892B8A2B8B2B91F40E94DA00809176
:100240000E0190910F01A0911001B09111018093C6
:10025000130190931401A0931501B09316010000AF
:10026000DF91CF91FF91EF91BF91AF919F918F91CE
:100270007F916F915F914F913F912F910F900092DD
:100280005B000F9000925F000F901F901895CF9326
:10029000DF9300D000D0CDB7DEB769837A838B833C
:1002A0009C8389819A81AB81BC8180930E0190935C
:1002B0000F01A0931001B093110180910E01909154
:1002C0000F01A0911001B09111018093130190933F
:1002D0001401A0931501B093160100000F900F9028
:1002E0000F900F90DF91CF910895CF93DF93CDB70B
:1002F000DEB78091170190911801CC01A0E0B0E029
:1003000040E050E026E030E0841B950B28173907C9
:1003100008F450C18A5B9F4FFC010C94570381E0A5
:1003200090E0909318018093170156C180911B01B2
:10033000882339F481E090E09093180180931701AD
:1003400040C180911B01813039F482E090E09093AC
:1003500018018093170135C180911B01823039F457
:1003600084E090E090931801809317012AC1809156
:100370001B01833009F025C186E090E090931801BD
:10038000809317011EC180911B01813039F483E0F5
:1003900090E0909318018093170115C180911B0183
:1003A000823039F484E090E0909318018093170133
:1003B0000AC180911B01833039F486E090E090936C
:1003C000180180931701FFC080911B01882309F059
:1003D000FAC081E090E09093180180931701F3C078
:1003E00080911B01882339F481E090E090931801FB
:1003F00080931701EAC080911B01813081F48091C4
:1004000019018A3060F483E090E0909318018093A2
:100410001701809119018F5F8093190128C0809185
:100420001B01813069F4809119018A3049F482E01E
:1004300090E090931801809317011092190117C052
:1004400080911B01823039F484E090E09093180190
:1004500080931701BAC080911B01833009F0B5C0A9
:1004600086E090E09093180180931701AEC0ADC074
:1004700080911B01813039F482E090E09093180163
:1004800080931701A4C080911B01823039F485E06C
:1004900090E0909318018093170199C080911B01FF
:1004A000833039F486E090E090931801809317012F
:1004B0008EC080911B01882309F089C081E090E003
:1004C000909318018093170182C080911B018823AB
:1004D00039F481E090E0909318018093170179C07E
:1004E00080911B01813039F482E090E090931801F3
:1004F000809317016EC080911B01823081F480913E
:100500001901882361F085E090E0909318018093B1
:100510001701809119018150809319011EC08091AB
:100520001B01823071F480911901882351F484E019
:1005300090E0909318018093170187E08093190150
:100540000CC080911B01833009F043C086E090E02D
:1005500090931801809317013CC03BC080911B0110
:10056000833039F486E090E090931801809317016E
:1005700032C080911B01813039F482E090E0909389
:1005800018018093170127C080911B01823039F434
:1005900084E090E090931801809317011CC0809133
:1005A0001B018823C1F481E090E0909318018093AF
:1005B000170111C081E090E090931801809317011A
:1005C0000BC0000009C0000007C0000005C000000B
:1005D00003C0000001C00000809117019091180134
:1005E0008430910579F086309105B1F00297D1F40D
:1005F00080911A01893098F480911A018F5F80935D
:100600001A010DC080911A01882359F080911A01B6
:10061000815080931A0105C010921A0103C0000096
:1006200001C0000088E290E020911A01FC012083C3
:100630000000DF91CF910895CF93DF93CDB7DEB760
:1006400081E290E0FC01108282E290E02FEFFC0159
:10065000208387E290E02FEFFC01208388E290E086
:10066000FC01108287E080931A011092190164E660
:1006700070E080E090E00E9447010E94970081E0D6
:1006800090E0909318018093170180E290E0FC01C4
:1006900080818095837080931B010E94750100000A
:1006A000809112018823E1F310921201EECFEE0F38
:1006B000FF1F0024001C0BBE0790F691E02D09944B
:0406C000F894FFCFDC
:1006C40000000002000000006E00000000000100B5
:0206D400000024
:00000001FF
