:100000000C9446000C9465000C9465000C946500FB
:100010000C9465000C9465000C9465000C946500CC
:100020000C9465000C9465000C9465000C946500BC
:100030000C9465000C94DE000C9465000C94650033
:100040000C9465000C9465000C9465000C9465009C
:100050000C9465000C9465000C9465000C9465008C
:100060000C9465000C9465000C9465000C9465007C
:100070000C9465000C9465000C9465000C9465006C
:100080000C9465000C9465000C94650011241FBE4F
:10009000CFEFD0E4DEBFCDBF11E0A0E0B1E0E2ECF5
:1000A000F4E000E00BBF02C007900D92A231B1074F
:1000B000D9F721E0A2E1B1E001C01D92AF31B20752
:1000C000E1F70E9424020C945F020C940000CF938D
:1000D000DF9300D01F92CDB7DEB789837B836A831D
:1000E00089818A3031F48A819B81BC018DE00E9434
:1000F000670080EC90E0FC018081882F90E08072A6
:100100009927892BB1F386EC90E02981FC012083AB
:1001100080E090E00F900F900F90DF91CF910895C5
:10012000CF93DF93CDB7DEB781E890E02BE0FC0101
:10013000208388E890E02DE730E0FC0131832083C4
:100140008FE690E022E0FC01208384E890E0FC014F
:100150001182108280910E0190910F01A0911001E7
:10016000B09111018093150190931601A09317018E
:10017000B09318018FE590E02FE530E0F901208180
:100180002068FC0120830000DF91CF910895CF9378
:10019000DF93CDB7DEB781E890E0FC01108200006C
:1001A000DF91CF910895CF93DF93CDB7DEB781E094
:1001B000809312010000DF91CF9108951F920F925A
:1001C00000905F000F92112400905B000F922F931C
:1001D0003F934F935F936F937F938F939F93AF93CF
:1001E000BF93EF93FF93CF93DF93CDB7DEB78091AB
:1001F000150190911601A0911701B0911801019776
:10020000A109B1098093150190931601A0931701DC
:10021000B09318018091150190911601A0911701DA
:10022000B0911801892B8A2B8B2B91F40E94D3005B
:1002300080910E0190910F01A0911001B0911101D8
:100240008093150190931601A0931701B0931801A4
:100250000000DF91CF91FF91EF91BF91AF919F91FE
:100260008F917F916F915F914F913F912F910F905F
:1002700000925B000F9000925F000F901F90189506
:10028000CF93DF9300D000D0CDB7DEB769837A83F8
:100290008B839C8389819A81AB81BC8180930E0181
:1002A00090930F01A0931001B093110180910E0162
:1002B00090910F01A0911001B0911101809315014F
:1002C00090931601A0931701B093180100000F90AE
:1002D0000F900F900F90DF91CF910895CF93DF9300
:1002E000CDB7DEB78091190190911A018230910546
:1002F00061F18330910528F4009771F0019799F02E
:100300007BC08430910509F451C084309105E0F13F
:10031000059709F45DC070C081E090E090931A01E8
:10032000809319016EC080911301882339F084E015
:1003300090E090931A018093190163C082E090E0ED
:1003400090931A01809319015CC080911301882356
:1003500039F084E090E090931A018093190151C024
:1003600080911B0190911C01892B39F483E090E06E
:1003700090931A018093190144C081E090E090931A
:100380001A01809319013DC080911301882339F02F
:1003900084E090E090931A018093190132C082E0CA
:1003A00090E090931A01809319012BC08091130162
:1003B000882339F084E090E090931A01809319012A
:1003C00020C085E090E090931A018093190119C034
:1003D00080911301882349F080911D0190911E01A5
:1003E00090931A01809319010CC085E090E09093DE
:1003F0001A018093190105C010921A011092190177
:1004000000008091190190911A018230910561F0EC
:100410008330910579F0019709F012C085E290E0F0
:1004200021E0FC0120830CC085E290E022E0FC0189
:10043000208306C085E290E024E0FC0120830000D8
:100440000000DF91CF910895CF93DF93CDB7DEB752
:1004500081E290E0FC01108282E290E02FEFFC014B
:10046000208384E290E02FEFFC01208385E290E07E
:10047000FC0110826CE271E080E090E00E9440019B
:100480000E94900010921A011092190180E290E0EF
:10049000FC018081882F90E08170992721E0892BD1
:1004A00009F020E0822F809313010E946E0100006A
:1004B000809112018823E1F310921201E7CFF894A2
:0204C000FFCF6C
:1004C20000000002000000006700000000000100C0
:0204D200000028
:00000001FF
