:100000000C9446000C9465000C9465000C946500FB
:100010000C9465000C9465000C9465000C946500CC
:100020000C9465000C9465000C9465000C946500BC
:100030000C9465000C94DE000C9465000C94650033
:100040000C9465000C9465000C9465000C9465009C
:100050000C9465000C9465000C9465000C9465008C
:100060000C9465000C9465000C9465000C9465007C
:100070000C9465000C9465000C9465000C9465006C
:100080000C9465000C9465000C94650011241FBE4F
:10009000CFEFD0E4DEBFCDBF11E0A0E0B1E0ECE8EF
:1000A000F5E000E00BBF02C007900D92A231B1074E
:1000B000D9F721E0A2E1B1E001C01D92AB31B20756
:1000C000E1F70E9489020C94C4020C940000CF93C3
:1000D000DF9300D01F92CDB7DEB789837B836A831D
:1000E00089818A3031F48A819B81BC018DE00E9434
:1000F000670080EC90E0FC018081882F90E08072A6
:100100009927892BB1F386EC90E02981FC012083AB
:1001100080E090E00F900F900F90DF91CF910895C5
:10012000CF93DF93CDB7DEB781E890E02BE0FC0101
:10013000208388E890E02DE730E0FC0131832083C4
:100140008FE690E022E0FC01208384E890E0FC014F
:100150001182108280910E0190910F01A0911001E7
:10016000B09111018093150190931601A09317018E
:10017000B09318018FE590E02FE530E0F901208180
:100180002068FC0120830000DF91CF910895CF9378
:10019000DF93CDB7DEB781E890E0FC01108200006C
:1001A000DF91CF910895CF93DF93CDB7DEB781E094
:1001B000809312010000DF91CF9108951F920F925A
:1001C00000905F000F92112400905B000F922F931C
:1001D0003F934F935F936F937F938F939F93AF93CF
:1001E000BF93EF93FF93CF93DF93CDB7DEB78091AB
:1001F000150190911601A0911701B0911801019776
:10020000A109B1098093150190931601A0931701DC
:10021000B09318018091150190911601A0911701DA
:10022000B0911801892B8A2B8B2B91F40E94D3005B
:1002300080910E0190910F01A0911001B0911101D8
:100240008093150190931601A0931701B0931801A4
:100250000000DF91CF91FF91EF91BF91AF919F91FE
:100260008F917F916F915F914F913F912F910F905F
:1002700000925B000F9000925F000F901F90189506
:10028000CF93DF9300D000D0CDB7DEB769837A83F8
:100290008B839C8389819A81AB81BC8180930E0181
:1002A00090930F01A0931001B093110180910E0162
:1002B00090910F01A0911001B0911101809315014F
:1002C00090931601A0931701B093180100000F90AE
:1002D0000F900F900F90DF91CF910895CF93DF9300
:1002E000CDB7DEB78091190190911A018230910546
:1002F00009F459C08330910528F4009771F00197F3
:10030000A9F0D3C08430910519F18430910508F427
:10031000B2C0059709F486C0C8C081E090E0909310
:100320001A018093190110921401CBC0809113011E
:10033000882339F084E090E090931A0180931901AA
:10034000C0C082E090E090931A0180931901B9C077
:1003500080911301882339F484E090E090931A018E
:1003600080931901A7C080911301882359F08091CF
:100370001401882339F482E090E090931A0180936D
:10038000190198C080911301882309F493C08091CA
:100390001401813009F08EC081E090E090931A0141
:1003A0008093190187C080911301882359F48091AB
:1003B0001401882339F483E090E090931A0180932C
:1003C00019012FC080911301882359F480911401E1
:1003D000813039F481E090E090931A018093190103
:1003E00020C080911301882359F080911401882343
:1003F00039F485E090E090931A018093190111C0BF
:1004000080911301882309F457C080911401813031
:1004100009F052C084E090E090931A018093190192
:100420004BC04AC080911301882339F485E090E0E5
:1004300090931A018093190141C080911301882380
:1004400059F080911401882339F483E090E090936F
:100450001A018093190132C080911301882371F130
:1004600080911401813051F582E090E090931A015F
:100470008093190123C080911301882339F482E00D
:1004800090E090931A01809319011AC08091130192
:100490008823B1F080911401813091F485E090E0DF
:1004A00090931A01809319010BC010921A011092B7
:1004B000190107C0000005C0000003C0000001C012
:1004C00000008091190190911A018230910571F01C
:1004D0008330910589F0019709F017C0109214013B
:1004E00085E290E021E0FC0120830FC085E290E0EE
:1004F00022E0FC01208309C081E08093140185E2A1
:1005000090E024E0FC01208300000000DF91CF9107
:100510000895CF93DF93CDB7DEB781E290E0FC0181
:10052000108282E290E02FEFFC01208384E290E0D1
:100530002FEFFC01208385E290E0FC0110826CE249
:1005400071E080E090E00E9440010E9490001092D3
:100550001A011092190180E290E0FC018081882F3D
:1005600090E08170992721E0892B09F020E0822F0B
:10057000809313010E946E01000080911201882374
:0C058000E1F310921201E7CFF894FFCFD6
:10058C0000000002000000006700000000000100F5
:02059C0000005D
:00000001FF
