:100000000C944D000C946C000C946C000C946C00DF
:100010000C946C000C946C000C946C000C946C00B0
:100020000C946C000C946C000C946C000C946C00A0
:100030000C946C000C94E5000C946C000C946C0017
:100040000C946C000C946C000C946C000C946C0080
:100050000C946C000C946C000C946C000C946C0070
:100060000C946C000C946C000C946C000C946C0060
:100070000C946C000C946C000C946C000C946C0050
:100080000C946C000C946C000C946C008F01960125
:10009000C301F0011D024A02770211241FBECFEFF7
:1000A000D0E4DEBFCDBF11E0A0E0B1E0E2E5F6E0D4
:1000B00000E00BBF02C007900D92A231B107D9F743
:1000C00021E0A2E1B1E001C01D92AB31B207E1F73E
:1000D0000E94E5020C9427030C940000CF93DF9359
:1000E00000D01F92CDB7DEB789837B836A83898175
:1000F0008A3031F48A819B81BC018DE00E946E00C0
:1001000080EC90E0FC018081882F90E0807299273C
:10011000892BB1F386EC90E02981FC01208380E0FB
:1001200090E00F900F900F90DF91CF910895CF93B3
:10013000DF93CDB7DEB781E890E02BE0FC012083B0
:1001400088E890E02DE730E0FC01318320838FE6E2
:1001500090E022E0FC01208384E890E0FC01118221
:10016000108280910E0190910F01A0911001B09129
:1001700011018093130190931401A0931501B09382
:1001800016018FE590E02FE530E0F901208120682D
:10019000FC0120830000DF91CF910895CF93DF937E
:1001A000CDB7DEB781E890E0FC0110820000DF915E
:1001B000CF910895CF93DF93CDB7DEB781E08093E1
:1001C00012010000DF91CF9108951F920F920090CD
:1001D0005F000F92112400905B000F922F933F93CA
:1001E0004F935F936F937F938F939F93AF93BF933F
:1001F000EF93FF93CF93DF93CDB7DEB780911301D9
:1002000090911401A0911501B09116010197A109D7
:10021000B1098093130190931401A0931501B09339
:1002200016018091130190911401A0911501B091D4
:100230001601892B8A2B8B2B91F40E94DA00809176
:100240000E0190910F01A0911001B09111018093C6
:10025000130190931401A0931501B09316010000AF
:10026000DF91CF91FF91EF91BF91AF919F918F91CE
:100270007F916F915F914F913F912F910F900092DD
:100280005B000F9000925F000F901F901895CF9326
:10029000DF9300D000D0CDB7DEB769837A838B833C
:1002A0009C8389819A81AB81BC8180930E0190935C
:1002B0000F01A0931001B093110180910E01909154
:1002C0000F01A0911001B09111018093130190933F
:1002D0001401A0931501B093160100000F900F9028
:1002E0000F900F90DF91CF910895CF93DF93CDB70B
:1002F000DEB78091170190911801CC01A0E0B0E029
:1003000040E050E026E030E0841B950B28173907C9
:1003100008F419C18A5B9F4FFC010C941E0381E015
:1003200090E090931801809317011FC180911A01EA
:10033000882339F481E090E09093180180931701AD
:1003400009C180911A01813039F482E090E09093E4
:10035000180180931701FEC080911A01823039F490
:1003600084E090E09093180180931701F3C080918E
:100370001A01833009F0EEC086E090E090931801F6
:1003800080931701E7C080911A01813039F482E02F
:1003900090E09093180180931701DEC080911A01BC
:1003A000823039F484E090E0909318018093170133
:1003B000D3C080911A01833039F486E090E09093A5
:1003C000180180931701C8C080911A01882309F091
:1003D000C3C081E090E09093180180931701BCC0E6
:1003E00080911A01882339F481E090E090931801FC
:1003F00080931701B3C080911A01813039F483E0F2
:1004000090E09093180180931701A8C080911A0181
:10041000823039F484E090E09093180180931701C2
:100420009DC080911A01833009F098C086E090E069
:10043000909318018093170191C080911A01813027
:1004400039F482E090E0909318018093170188C0FE
:1004500080911A01823039F484E090E09093180181
:10046000809317017DC080911A01833039F486E0B2
:1004700090E0909318018093170172C080911A0147
:10048000882309F06DC081E090E09093180180937B
:10049000170166C080911A01882339F481E090E049
:1004A00090931801809317015DC080911A018130EB
:1004B00039F482E090E0909318018093170152C0C4
:1004C00080911A01823039F485E090E09093180110
:1004D0008093170147C080911A01833009F042C010
:1004E00086E090E090931801809317013BC08091C3
:1004F0001A01833039F486E090E0909318018093DC
:10050000170132C080911A01813039F482E090E005
:10051000909318018093170127C080911A018230AF
:1005200039F484E090E090931801809317011CC087
:1005300080911A018823C1F481E090E09093180122
:100540008093170111C081E090E09093180180938F
:1005500017010BC0000009C0000007C0000005C063
:10056000000003C0000001C00000809117019091BD
:1005700018018430910579F086309105B1F0029729
:10058000D1F480911901893098F4809119018F5F1D
:10059000809319010DC080911901882359F0809131
:1005A000190181508093190105C01092190103C0EF
:1005B000000001C0000088E290E020911901FC01D8
:1005C00020830000DF91CF910895CF93DF93CDB7C3
:1005D000DEB781E290E0FC01108282E290E02FEF32
:1005E000FC01208387E290E02FEFFC01208388E26A
:1005F00090E0FC01108287E08093190164E670E0CE
:1006000080E090E00E9447010E94970081E090E026
:10061000909318018093170180E290E0FC018081A3
:100620008095837080931A010E947501000080916B
:1006300012018823E1F310921201EECFEE0FFF1F9B
:100640000024001C0BBE0790F691E02D0994F8944D
:02065000FFCFDA
:1006520000000002000000006E0000000000010027
:02066200000096
:00000001FF
